{
  "_format": "hh-sol-artifact-1",
  "contractName": "BET",
  "sourceName": "src/backend/contracts/BGMI_Betting.sol",
  "abi": [
    {
      "inputs": [
        {
          "internalType": "uint256",
          "name": "_minimum_bet_amount",
          "type": "uint256"
        }
      ],
      "stateMutability": "nonpayable",
      "type": "constructor"
    },
    {
      "inputs": [],
      "name": "Match_ended",
      "outputs": [
        {
          "internalType": "bool",
          "name": "",
          "type": "bool"
        }
      ],
      "stateMutability": "view",
      "type": "function"
    },
    {
      "inputs": [
        {
          "internalType": "uint256",
          "name": "",
          "type": "uint256"
        }
      ],
      "name": "bets",
      "outputs": [
        {
          "internalType": "uint256",
          "name": "bet_amount",
          "type": "uint256"
        },
        {
          "internalType": "uint8",
          "name": "team",
          "type": "uint8"
        },
        {
          "internalType": "address payable",
          "name": "better",
          "type": "address"
        }
      ],
      "stateMutability": "view",
      "type": "function"
    },
    {
      "inputs": [
        {
          "internalType": "uint8",
          "name": "_result",
          "type": "uint8"
        }
      ],
      "name": "close_betting",
      "outputs": [],
      "stateMutability": "nonpayable",
      "type": "function"
    },
    {
      "inputs": [],
      "name": "declare_results",
      "outputs": [],
      "stateMutability": "payable",
      "type": "function"
    },
    {
      "inputs": [
        {
          "internalType": "address",
          "name": "",
          "type": "address"
        }
      ],
      "name": "has_bet",
      "outputs": [
        {
          "internalType": "bool",
          "name": "",
          "type": "bool"
        }
      ],
      "stateMutability": "view",
      "type": "function"
    },
    {
      "inputs": [],
      "name": "min_bet_amt",
      "outputs": [
        {
          "internalType": "uint256",
          "name": "",
          "type": "uint256"
        }
      ],
      "stateMutability": "view",
      "type": "function"
    },
    {
      "inputs": [],
      "name": "owner",
      "outputs": [
        {
          "internalType": "address",
          "name": "",
          "type": "address"
        }
      ],
      "stateMutability": "view",
      "type": "function"
    },
    {
      "inputs": [
        {
          "internalType": "uint8",
          "name": "_team",
          "type": "uint8"
        }
      ],
      "name": "put_bet",
      "outputs": [],
      "stateMutability": "payable",
      "type": "function"
    },
    {
      "inputs": [],
      "name": "result",
      "outputs": [
        {
          "internalType": "uint8",
          "name": "",
          "type": "uint8"
        }
      ],
      "stateMutability": "view",
      "type": "function"
    },
    {
      "inputs": [
        {
          "internalType": "string",
          "name": "_team1_name",
          "type": "string"
        },
        {
          "internalType": "string",
          "name": "_team2_name",
          "type": "string"
        }
      ],
      "name": "setTeamNames",
      "outputs": [],
      "stateMutability": "nonpayable",
      "type": "function"
    },
    {
      "inputs": [],
      "name": "team1_bets_amt",
      "outputs": [
        {
          "internalType": "uint256",
          "name": "",
          "type": "uint256"
        }
      ],
      "stateMutability": "view",
      "type": "function"
    },
    {
      "inputs": [],
      "name": "team1_name",
      "outputs": [
        {
          "internalType": "string",
          "name": "",
          "type": "string"
        }
      ],
      "stateMutability": "view",
      "type": "function"
    },
    {
      "inputs": [],
      "name": "team2_bets_amt",
      "outputs": [
        {
          "internalType": "uint256",
          "name": "",
          "type": "uint256"
        }
      ],
      "stateMutability": "view",
      "type": "function"
    },
    {
      "inputs": [],
      "name": "team2_name",
      "outputs": [
        {
          "internalType": "string",
          "name": "",
          "type": "string"
        }
      ],
      "stateMutability": "view",
      "type": "function"
    },
    {
      "inputs": [],
      "name": "total_bets",
      "outputs": [
        {
          "internalType": "uint256",
          "name": "",
          "type": "uint256"
        }
      ],
      "stateMutability": "view",
      "type": "function"
    }
  ],
  "bytecode": "0x60806040526000600460006101000a81548160ff0219169083151502179055506000600555600060085560006009553480156200003b57600080fd5b5060405162001a2f38038062001a2f8339818101604052810190620000619190620000ef565b336000806101000a81548173ffffffffffffffffffffffffffffffffffffffff021916908373ffffffffffffffffffffffffffffffffffffffff160217905550806001819055505062000121565b600080fd5b6000819050919050565b620000c981620000b4565b8114620000d557600080fd5b50565b600081519050620000e981620000be565b92915050565b600060208284031215620001085762000107620000af565b5b60006200011884828501620000d8565b91505092915050565b6118fe80620001316000396000f3fe6080604052600436106100e85760003560e01c80638ca62fd71161008a578063b46f3ca811610059578063b46f3ca8146102a8578063b7cc3910146102d1578063d4c221a2146102fc578063fcb05d0c14610339576100e8565b80638ca62fd71461020d5780638da5cb5b1461022957806390c9ae7f14610254578063a6a6fe731461027f576100e8565b80633022f2c4116100c65780633022f2c4146101825780634d4f2c9a146101ad5780635cc1ffb9146101b757806365372147146101e2576100e8565b8063125b8454146100ed57806322af00fa146101185780632722deaa14610157575b600080fd5b3480156100f957600080fd5b50610102610364565b60405161010f9190610cc0565b60405180910390f35b34801561012457600080fd5b5061013f600480360381019061013a9190610d1b565b61036a565b60405161014e93929190610da5565b60405180910390f35b34801561016357600080fd5b5061016c6103d1565b6040516101799190610cc0565b60405180910390f35b34801561018e57600080fd5b506101976103d7565b6040516101a49190610cc0565b60405180910390f35b6101b56103dd565b005b3480156101c357600080fd5b506101cc61067f565b6040516101d99190610df7565b60405180910390f35b3480156101ee57600080fd5b506101f7610692565b6040516102049190610e12565b60405180910390f35b61022760048036038101906102229190610e59565b6106a5565b005b34801561023557600080fd5b5061023e610924565b60405161024b9190610ea7565b60405180910390f35b34801561026057600080fd5b50610269610948565b6040516102769190610f52565b60405180910390f35b34801561028b57600080fd5b506102a660048036038101906102a19190610e59565b6109d6565b005b3480156102b457600080fd5b506102cf60048036038101906102ca91906110a9565b610b41565b005b3480156102dd57600080fd5b506102e6610bf3565b6040516102f39190610cc0565b60405180910390f35b34801561030857600080fd5b50610323600480360381019061031e919061114d565b610bf9565b6040516103309190610df7565b60405180910390f35b34801561034557600080fd5b5061034e610c19565b60405161035b9190610f52565b60405180910390f35b60055481565b6006818154811061037a57600080fd5b90600052602060002090600202016000915090508060000154908060010160009054906101000a900460ff16908060010160019054906101000a900473ffffffffffffffffffffffffffffffffffffffff16905083565b60015481565b60095481565b3373ffffffffffffffffffffffffffffffffffffffff1660008054906101000a900473ffffffffffffffffffffffffffffffffffffffff1673ffffffffffffffffffffffffffffffffffffffff161461046b576040517f08c379a0000000000000000000000000000000000000000000000000000000008152600401610462906111c6565b60405180910390fd5b600460009054906101000a900460ff166104ba576040517f08c379a00000000000000000000000000000000000000000000000000000000081526004016104b190611232565b60405180910390fd5b60006001600a60009054906101000a900460ff1660ff16146104de576009546104e2565b6008545b905060006001600a60009054906101000a900460ff1660ff16146105085760085461050c565b6009545b905060005b60055481101561067a57600a60009054906101000a900460ff1660ff166006828154811061054257610541611252565b5b906000526020600020906002020160010160009054906101000a900460ff1660ff16036106675760006006828154811061057f5761057e611252565b5b9060005260206000209060020201600001548484600685815481106105a7576105a6611252565b5b9060005260206000209060020201600001546105c391906112b0565b6105cd9190611321565b6105d79190611352565b9050600682815481106105ed576105ec611252565b5b906000526020600020906002020160010160019054906101000a900473ffffffffffffffffffffffffffffffffffffffff1673ffffffffffffffffffffffffffffffffffffffff166108fc829081150290604051600060405180830381858888f19350505050158015610664573d6000803e3d6000fd5b50505b808061067290611386565b915050610511565b505050565b600460009054906101000a900460ff1681565b600a60009054906101000a900460ff1681565b600460009054906101000a900460ff16156106f5576040517f08c379a00000000000000000000000000000000000000000000000000000000081526004016106ec9061141a565b60405180910390fd5b60018160ff16148061070a575060028160ff16145b610749576040517f08c379a000000000000000000000000000000000000000000000000000000000815260040161074090611486565b60405180910390fd5b60015434101561078e576040517f08c379a0000000000000000000000000000000000000000000000000000000008152600401610785906114f2565b60405180910390fd5b6000349050600660405180606001604052808381526020018460ff1681526020013373ffffffffffffffffffffffffffffffffffffffff1681525090806001815401808255809150506001900390600052602060002090600202016000909190919091506000820151816000015560208201518160010160006101000a81548160ff021916908360ff16021790555060408201518160010160016101000a81548173ffffffffffffffffffffffffffffffffffffffff021916908373ffffffffffffffffffffffffffffffffffffffff160217905550505060018260ff160361088b5780600860008282546108839190611352565b925050819055505b60028260ff16036108b05780600960008282546108a89190611352565b925050819055505b6001600760003373ffffffffffffffffffffffffffffffffffffffff1673ffffffffffffffffffffffffffffffffffffffff16815260200190815260200160002060006101000a81548160ff0219169083151502179055506005600081548092919061091b90611386565b91905055505050565b60008054906101000a900473ffffffffffffffffffffffffffffffffffffffff1681565b6003805461095590611541565b80601f016020809104026020016040519081016040528092919081815260200182805461098190611541565b80156109ce5780601f106109a3576101008083540402835291602001916109ce565b820191906000526020600020905b8154815290600101906020018083116109b157829003601f168201915b505050505081565b3373ffffffffffffffffffffffffffffffffffffffff1660008054906101000a900473ffffffffffffffffffffffffffffffffffffffff1673ffffffffffffffffffffffffffffffffffffffff1614610a64576040517f08c379a0000000000000000000000000000000000000000000000000000000008152600401610a5b906111c6565b60405180910390fd5b600460009054906101000a900460ff1615610ab4576040517f08c379a0000000000000000000000000000000000000000000000000000000008152600401610aab906115be565b60405180910390fd5b60018160ff161480610ac9575060028160ff16145b610b08576040517f08c379a0000000000000000000000000000000000000000000000000000000008152600401610aff9061162a565b60405180910390fd5b6001600460006101000a81548160ff02191690831515021790555080600a60006101000a81548160ff021916908360ff16021790555050565b3373ffffffffffffffffffffffffffffffffffffffff1660008054906101000a900473ffffffffffffffffffffffffffffffffffffffff1673ffffffffffffffffffffffffffffffffffffffff1614610bcf576040517f08c379a0000000000000000000000000000000000000000000000000000000008152600401610bc6906111c6565b60405180910390fd5b8160029081610bde91906117f6565b508060039081610bee91906117f6565b505050565b60085481565b60076020528060005260406000206000915054906101000a900460ff1681565b60028054610c2690611541565b80601f0160208091040260200160405190810160405280929190818152602001828054610c5290611541565b8015610c9f5780601f10610c7457610100808354040283529160200191610c9f565b820191906000526020600020905b815481529060010190602001808311610c8257829003601f168201915b505050505081565b6000819050919050565b610cba81610ca7565b82525050565b6000602082019050610cd56000830184610cb1565b92915050565b6000604051905090565b600080fd5b600080fd5b610cf881610ca7565b8114610d0357600080fd5b50565b600081359050610d1581610cef565b92915050565b600060208284031215610d3157610d30610ce5565b5b6000610d3f84828501610d06565b91505092915050565b600060ff82169050919050565b610d5e81610d48565b82525050565b600073ffffffffffffffffffffffffffffffffffffffff82169050919050565b6000610d8f82610d64565b9050919050565b610d9f81610d84565b82525050565b6000606082019050610dba6000830186610cb1565b610dc76020830185610d55565b610dd46040830184610d96565b949350505050565b60008115159050919050565b610df181610ddc565b82525050565b6000602082019050610e0c6000830184610de8565b92915050565b6000602082019050610e276000830184610d55565b92915050565b610e3681610d48565b8114610e4157600080fd5b50565b600081359050610e5381610e2d565b92915050565b600060208284031215610e6f57610e6e610ce5565b5b6000610e7d84828501610e44565b91505092915050565b6000610e9182610d64565b9050919050565b610ea181610e86565b82525050565b6000602082019050610ebc6000830184610e98565b92915050565b600081519050919050565b600082825260208201905092915050565b60005b83811015610efc578082015181840152602081019050610ee1565b60008484015250505050565b6000601f19601f8301169050919050565b6000610f2482610ec2565b610f2e8185610ecd565b9350610f3e818560208601610ede565b610f4781610f08565b840191505092915050565b60006020820190508181036000830152610f6c8184610f19565b905092915050565b600080fd5b600080fd5b7f4e487b7100000000000000000000000000000000000000000000000000000000600052604160045260246000fd5b610fb682610f08565b810181811067ffffffffffffffff82111715610fd557610fd4610f7e565b5b80604052505050565b6000610fe8610cdb565b9050610ff48282610fad565b919050565b600067ffffffffffffffff82111561101457611013610f7e565b5b61101d82610f08565b9050602081019050919050565b82818337600083830152505050565b600061104c61104784610ff9565b610fde565b90508281526020810184848401111561106857611067610f79565b5b61107384828561102a565b509392505050565b600082601f8301126110905761108f610f74565b5b81356110a0848260208601611039565b91505092915050565b600080604083850312156110c0576110bf610ce5565b5b600083013567ffffffffffffffff8111156110de576110dd610cea565b5b6110ea8582860161107b565b925050602083013567ffffffffffffffff81111561110b5761110a610cea565b5b6111178582860161107b565b9150509250929050565b61112a81610e86565b811461113557600080fd5b50565b60008135905061114781611121565b92915050565b60006020828403121561116357611162610ce5565b5b600061117184828501611138565b91505092915050565b7f4e6f7420616e206f776e65720000000000000000000000000000000000000000600082015250565b60006111b0600c83610ecd565b91506111bb8261117a565b602082019050919050565b600060208201905081810360008301526111df816111a3565b9050919050565b7f42657474696e67206973207374696c6c206f70656e0000000000000000000000600082015250565b600061121c601583610ecd565b9150611227826111e6565b602082019050919050565b6000602082019050818103600083015261124b8161120f565b9050919050565b7f4e487b7100000000000000000000000000000000000000000000000000000000600052603260045260246000fd5b7f4e487b7100000000000000000000000000000000000000000000000000000000600052601160045260246000fd5b60006112bb82610ca7565b91506112c683610ca7565b92508282026112d481610ca7565b915082820484148315176112eb576112ea611281565b5b5092915050565b7f4e487b7100000000000000000000000000000000000000000000000000000000600052601260045260246000fd5b600061132c82610ca7565b915061133783610ca7565b925082611347576113466112f2565b5b828204905092915050565b600061135d82610ca7565b915061136883610ca7565b92508282019050808211156113805761137f611281565b5b92915050565b600061139182610ca7565b91507fffffffffffffffffffffffffffffffffffffffffffffffffffffffffffffffff82036113c3576113c2611281565b5b600182019050919050565b7f5468652062657474696e6720697320636c6f7365640000000000000000000000600082015250565b6000611404601583610ecd565b915061140f826113ce565b602082019050919050565b60006020820190508181036000830152611433816113f7565b9050919050565b7f496e76616c6964207465616d0000000000000000000000000000000000000000600082015250565b6000611470600c83610ecd565b915061147b8261143a565b602082019050919050565b6000602082019050818103600083015261149f81611463565b9050919050565b7f4d6f7265207374616b65206e6565646564000000000000000000000000000000600082015250565b60006114dc601183610ecd565b91506114e7826114a6565b602082019050919050565b6000602082019050818103600083015261150b816114cf565b9050919050565b7f4e487b7100000000000000000000000000000000000000000000000000000000600052602260045260246000fd5b6000600282049050600182168061155957607f821691505b60208210810361156c5761156b611512565b5b50919050565b7f42657474696e6720616c726561647920636c6f73656400000000000000000000600082015250565b60006115a8601683610ecd565b91506115b382611572565b602082019050919050565b600060208201905081810360008301526115d78161159b565b9050919050565b7f496e76616c696420726573756c74000000000000000000000000000000000000600082015250565b6000611614600e83610ecd565b915061161f826115de565b602082019050919050565b6000602082019050818103600083015261164381611607565b9050919050565b60008190508160005260206000209050919050565b60006020601f8301049050919050565b600082821b905092915050565b6000600883026116ac7fffffffffffffffffffffffffffffffffffffffffffffffffffffffffffffffff8261166f565b6116b6868361166f565b95508019841693508086168417925050509392505050565b6000819050919050565b60006116f36116ee6116e984610ca7565b6116ce565b610ca7565b9050919050565b6000819050919050565b61170d836116d8565b611721611719826116fa565b84845461167c565b825550505050565b600090565b611736611729565b611741818484611704565b505050565b5b818110156117655761175a60008261172e565b600181019050611747565b5050565b601f8211156117aa5761177b8161164a565b6117848461165f565b81016020851015611793578190505b6117a761179f8561165f565b830182611746565b50505b505050565b600082821c905092915050565b60006117cd600019846008026117af565b1980831691505092915050565b60006117e683836117bc565b9150826002028217905092915050565b6117ff82610ec2565b67ffffffffffffffff81111561181857611817610f7e565b5b6118228254611541565b61182d828285611769565b600060209050601f831160018114611860576000841561184e578287015190505b61185885826117da565b8655506118c0565b601f19841661186e8661164a565b60005b8281101561189657848901518255600182019150602085019450602081019050611871565b868310156118b357848901516118af601f8916826117bc565b8355505b6001600288020188555050505b50505050505056fea26469706673582212201861561d3a7590948a1eacbd491699b5ebb35e4ec4926bf5c07e9c42ccbb03a664736f6c63430008140033",
  "linkReferences": {},
  "deployedLinkReferences": {}
}