{
  "_format": "hh-sol-artifact-1",
  "contractName": "Mines",
  "sourceName": "src/backend/contracts/Mines.sol",
  "abi": [
    {
      "inputs": [
        {
          "internalType": "uint256",
          "name": "_betAmount",
          "type": "uint256"
        }
      ],
      "stateMutability": "nonpayable",
      "type": "constructor"
    },
    {
      "anonymous": false,
      "inputs": [
        {
          "indexed": true,
          "internalType": "address",
          "name": "player",
          "type": "address"
        },
        {
          "indexed": false,
          "internalType": "uint256",
          "name": "betAmount",
          "type": "uint256"
        }
      ],
      "name": "Bet",
      "type": "event"
    },
    {
      "anonymous": false,
      "inputs": [
        {
          "indexed": true,
          "internalType": "address",
          "name": "player",
          "type": "address"
        },
        {
          "indexed": false,
          "internalType": "uint256",
          "name": "rewardAmount",
          "type": "uint256"
        }
      ],
      "name": "Reward",
      "type": "event"
    },
    {
      "inputs": [],
      "name": "bet",
      "outputs": [],
      "stateMutability": "payable",
      "type": "function"
    },
    {
      "inputs": [],
      "name": "betActive",
      "outputs": [
        {
          "internalType": "bool",
          "name": "",
          "type": "bool"
        }
      ],
      "stateMutability": "view",
      "type": "function"
    },
    {
      "inputs": [],
      "name": "betAmount",
      "outputs": [
        {
          "internalType": "uint256",
          "name": "",
          "type": "uint256"
        }
      ],
      "stateMutability": "view",
      "type": "function"
    },
    {
      "inputs": [],
      "name": "betRequired",
      "outputs": [
        {
          "internalType": "uint256",
          "name": "",
          "type": "uint256"
        }
      ],
      "stateMutability": "view",
      "type": "function"
    },
    {
      "inputs": [],
      "name": "claimReward",
      "outputs": [],
      "stateMutability": "nonpayable",
      "type": "function"
    },
    {
      "inputs": [],
      "name": "fundContract",
      "outputs": [],
      "stateMutability": "payable",
      "type": "function"
    },
    {
      "inputs": [],
      "name": "manager",
      "outputs": [
        {
          "internalType": "address",
          "name": "",
          "type": "address"
        }
      ],
      "stateMutability": "view",
      "type": "function"
    },
    {
      "inputs": [],
      "name": "player",
      "outputs": [
        {
          "internalType": "address",
          "name": "",
          "type": "address"
        }
      ],
      "stateMutability": "view",
      "type": "function"
    },
    {
      "inputs": [
        {
          "internalType": "uint256",
          "name": "_noOfGems",
          "type": "uint256"
        }
      ],
      "name": "reward",
      "outputs": [],
      "stateMutability": "nonpayable",
      "type": "function"
    },
    {
      "inputs": [],
      "name": "rewardAmount",
      "outputs": [
        {
          "internalType": "uint256",
          "name": "",
          "type": "uint256"
        }
      ],
      "stateMutability": "view",
      "type": "function"
    }
  ],
  "bytecode": "0x60806040526000600560006101000a81548160ff02191690831515021790555034801561002b57600080fd5b50604051610ed5380380610ed5833981810160405281019061004d91906100d5565b336000806101000a81548173ffffffffffffffffffffffffffffffffffffffff021916908373ffffffffffffffffffffffffffffffffffffffff1602179055508060048190555050610102565b600080fd5b6000819050919050565b6100b28161009f565b81146100bd57600080fd5b50565b6000815190506100cf816100a9565b92915050565b6000602082840312156100eb576100ea61009a565b5b60006100f9848285016100c0565b91505092915050565b610dc4806101116000396000f3fe6080604052600436106100915760003560e01c8063b88a802f11610059578063b88a802f1461014a578063bd097e2114610161578063d24257c01461016b578063ea27b3fe14610196578063f7b2a7be146101c157610091565b80630592a3d61461009657806311610c25146100c1578063481c6a75146100cb57806348db5f89146100f6578063a9fb763c14610121575b600080fd5b3480156100a257600080fd5b506100ab6101ec565b6040516100b891906107b1565b60405180910390f35b6100c96101f2565b005b3480156100d757600080fd5b506100e061035d565b6040516100ed919061080d565b60405180910390f35b34801561010257600080fd5b5061010b610381565b604051610118919061080d565b60405180910390f35b34801561012d57600080fd5b5061014860048036038101906101439190610859565b6103a7565b005b34801561015657600080fd5b5061015f610443565b005b61016961068c565b005b34801561017757600080fd5b50610180610779565b60405161018d91906107b1565b60405180910390f35b3480156101a257600080fd5b506101ab61077f565b6040516101b891906108a1565b60405180910390f35b3480156101cd57600080fd5b506101d6610792565b6040516101e391906107b1565b60405180910390f35b60045481565b600560009054906101000a900460ff1615610242576040517f08c379a000000000000000000000000000000000000000000000000000000000815260040161023990610919565b60405180910390fd5b6004543414610286576040517f08c379a000000000000000000000000000000000000000000000000000000000815260040161027d90610985565b60405180910390fd5b3460028190555033600160006101000a81548173ffffffffffffffffffffffffffffffffffffffff021916908373ffffffffffffffffffffffffffffffffffffffff1602179055506001600560006101000a81548160ff021916908315150217905550600160009054906101000a900473ffffffffffffffffffffffffffffffffffffffff1673ffffffffffffffffffffffffffffffffffffffff167fc0ae20ffbb1eca06a840c35912bdb9f8e6e1fad1f028c875be0ddf54d480d71e60025460405161035391906107b1565b60405180910390a2565b60008054906101000a900473ffffffffffffffffffffffffffffffffffffffff1681565b600160009054906101000a900473ffffffffffffffffffffffffffffffffffffffff1681565b600081905060008110156103f0576040517f08c379a00000000000000000000000000000000000000000000000000000000081526004016103e7906109f1565b60405180910390fd5b60025460038190555060005b8181101561043e5760056003546104139190610a6f565b600360008282546104249190610aa0565b92505081905550808061043690610ad4565b9150506103fc565b505050565b600160009054906101000a900473ffffffffffffffffffffffffffffffffffffffff1673ffffffffffffffffffffffffffffffffffffffff163373ffffffffffffffffffffffffffffffffffffffff16146104d3576040517f08c379a00000000000000000000000000000000000000000000000000000000081526004016104ca90610b68565b60405180910390fd5b600354471015610518576040517f08c379a000000000000000000000000000000000000000000000000000000000815260040161050f90610bfa565b60405180910390fd5b6000600354476105289190610c1a565b9050600160009054906101000a900473ffffffffffffffffffffffffffffffffffffffff1673ffffffffffffffffffffffffffffffffffffffff166108fc6003549081150290604051600060405180830381858888f19350505050158015610594573d6000803e3d6000fd5b5060008054906101000a900473ffffffffffffffffffffffffffffffffffffffff1673ffffffffffffffffffffffffffffffffffffffff166108fc829081150290604051600060405180830381858888f193505050501580156105fb573d6000803e3d6000fd5b506000600560006101000a81548160ff021916908315150217905550600160009054906101000a900473ffffffffffffffffffffffffffffffffffffffff1673ffffffffffffffffffffffffffffffffffffffff167f619caafabdd75649b302ba8419e48cccf64f37f1983ac4727cfb38b57703ffc960035460405161068191906107b1565b60405180910390a250565b60008054906101000a900473ffffffffffffffffffffffffffffffffffffffff1673ffffffffffffffffffffffffffffffffffffffff163373ffffffffffffffffffffffffffffffffffffffff161461071a576040517f08c379a000000000000000000000000000000000000000000000000000000000815260040161071190610cc0565b60405180910390fd5b600a600254601261072b9190610ce0565b6107359190610a6f565b341015610777576040517f08c379a000000000000000000000000000000000000000000000000000000000815260040161076e90610d6e565b60405180910390fd5b565b60025481565b600560009054906101000a900460ff1681565b60035481565b6000819050919050565b6107ab81610798565b82525050565b60006020820190506107c660008301846107a2565b92915050565b600073ffffffffffffffffffffffffffffffffffffffff82169050919050565b60006107f7826107cc565b9050919050565b610807816107ec565b82525050565b600060208201905061082260008301846107fe565b92915050565b600080fd5b61083681610798565b811461084157600080fd5b50565b6000813590506108538161082d565b92915050565b60006020828403121561086f5761086e610828565b5b600061087d84828501610844565b91505092915050565b60008115159050919050565b61089b81610886565b82525050565b60006020820190506108b66000830184610892565b92915050565b600082825260208201905092915050565b7f42657420697320616c7265616479206163746976650000000000000000000000600082015250565b60006109036015836108bc565b915061090e826108cd565b602082019050919050565b60006020820190508181036000830152610932816108f6565b9050919050565b7f53656e742076616c7565206d757374206d617463682062657420616d6f756e74600082015250565b600061096f6020836108bc565b915061097a82610939565b602082019050919050565b6000602082019050818103600083015261099e81610962565b9050919050565b7f6572726f72000000000000000000000000000000000000000000000000000000600082015250565b60006109db6005836108bc565b91506109e6826109a5565b602082019050919050565b60006020820190508181036000830152610a0a816109ce565b9050919050565b7f4e487b7100000000000000000000000000000000000000000000000000000000600052601260045260246000fd5b7f4e487b7100000000000000000000000000000000000000000000000000000000600052601160045260246000fd5b6000610a7a82610798565b9150610a8583610798565b925082610a9557610a94610a11565b5b828204905092915050565b6000610aab82610798565b9150610ab683610798565b9250828201905080821115610ace57610acd610a40565b5b92915050565b6000610adf82610798565b91507fffffffffffffffffffffffffffffffffffffffffffffffffffffffffffffffff8203610b1157610b10610a40565b5b600182019050919050565b7f6f6e6c7920706c617965722063616e20636c61696d2072657761726400000000600082015250565b6000610b52601c836108bc565b9150610b5d82610b1c565b602082019050919050565b60006020820190508181036000830152610b8181610b45565b9050919050565b7f436f6e747261637420646f6573206e6f74206861766520656e6f75676820626160008201527f6c616e6365000000000000000000000000000000000000000000000000000000602082015250565b6000610be46025836108bc565b9150610bef82610b88565b604082019050919050565b60006020820190508181036000830152610c1381610bd7565b9050919050565b6000610c2582610798565b9150610c3083610798565b9250828203905081811115610c4857610c47610a40565b5b92915050565b7f4f6e6c79206d616e616765722063616e2066756e642074686520636f6e74726160008201527f6374000000000000000000000000000000000000000000000000000000000000602082015250565b6000610caa6022836108bc565b9150610cb582610c4e565b604082019050919050565b60006020820190508181036000830152610cd981610c9d565b9050919050565b6000610ceb82610798565b9150610cf683610798565b9250828202610d0481610798565b91508282048414831517610d1b57610d1a610a40565b5b5092915050565b7f4d6f7265207374616b6520697320726571756972656400000000000000000000600082015250565b6000610d586016836108bc565b9150610d6382610d22565b602082019050919050565b60006020820190508181036000830152610d8781610d4b565b905091905056fea26469706673582212205e4340a4671a33649854c7f02325322d437e53d733cb04b13638d7043b7094a064736f6c63430008140033",
  "linkReferences": {},
  "deployedLinkReferences": {}
}