{
  "_format": "hh-sol-artifact-1",
  "contractName": "MyNFTCollection",
  "sourceName": "src/backend/contracts/soundStake.sol",
  "abi": [
    {
      "inputs": [
        {
          "internalType": "string",
          "name": "baseURI",
          "type": "string"
        }
      ],
      "stateMutability": "nonpayable",
      "type": "constructor"
    },
    {
      "inputs": [
        {
          "internalType": "address",
          "name": "sender",
          "type": "address"
        },
        {
          "internalType": "uint256",
          "name": "balance",
          "type": "uint256"
        },
        {
          "internalType": "uint256",
          "name": "needed",
          "type": "uint256"
        },
        {
          "internalType": "uint256",
          "name": "tokenId",
          "type": "uint256"
        }
      ],
      "name": "ERC1155InsufficientBalance",
      "type": "error"
    },
    {
      "inputs": [
        {
          "internalType": "address",
          "name": "approver",
          "type": "address"
        }
      ],
      "name": "ERC1155InvalidApprover",
      "type": "error"
    },
    {
      "inputs": [
        {
          "internalType": "uint256",
          "name": "idsLength",
          "type": "uint256"
        },
        {
          "internalType": "uint256",
          "name": "valuesLength",
          "type": "uint256"
        }
      ],
      "name": "ERC1155InvalidArrayLength",
      "type": "error"
    },
    {
      "inputs": [
        {
          "internalType": "address",
          "name": "operator",
          "type": "address"
        }
      ],
      "name": "ERC1155InvalidOperator",
      "type": "error"
    },
    {
      "inputs": [
        {
          "internalType": "address",
          "name": "receiver",
          "type": "address"
        }
      ],
      "name": "ERC1155InvalidReceiver",
      "type": "error"
    },
    {
      "inputs": [
        {
          "internalType": "address",
          "name": "sender",
          "type": "address"
        }
      ],
      "name": "ERC1155InvalidSender",
      "type": "error"
    },
    {
      "inputs": [
        {
          "internalType": "address",
          "name": "operator",
          "type": "address"
        },
        {
          "internalType": "address",
          "name": "owner",
          "type": "address"
        }
      ],
      "name": "ERC1155MissingApprovalForAll",
      "type": "error"
    },
    {
      "anonymous": false,
      "inputs": [
        {
          "indexed": true,
          "internalType": "address",
          "name": "account",
          "type": "address"
        },
        {
          "indexed": true,
          "internalType": "address",
          "name": "operator",
          "type": "address"
        },
        {
          "indexed": false,
          "internalType": "bool",
          "name": "approved",
          "type": "bool"
        }
      ],
      "name": "ApprovalForAll",
      "type": "event"
    },
    {
      "anonymous": false,
      "inputs": [
        {
          "indexed": true,
          "internalType": "uint256",
          "name": "tokenId",
          "type": "uint256"
        },
        {
          "indexed": false,
          "internalType": "uint256",
          "name": "amount",
          "type": "uint256"
        }
      ],
      "name": "FundsAdded",
      "type": "event"
    },
    {
      "anonymous": false,
      "inputs": [
        {
          "indexed": true,
          "internalType": "uint256",
          "name": "tokenId",
          "type": "uint256"
        },
        {
          "indexed": true,
          "internalType": "address",
          "name": "creator",
          "type": "address"
        },
        {
          "indexed": false,
          "internalType": "uint256",
          "name": "totalSupply",
          "type": "uint256"
        },
        {
          "indexed": false,
          "internalType": "uint256",
          "name": "totalFractionalAmount",
          "type": "uint256"
        }
      ],
      "name": "NFTMinted",
      "type": "event"
    },
    {
      "anonymous": false,
      "inputs": [
        {
          "indexed": true,
          "internalType": "uint256",
          "name": "tokenId",
          "type": "uint256"
        },
        {
          "indexed": false,
          "internalType": "uint256",
          "name": "amount",
          "type": "uint256"
        }
      ],
      "name": "RevenueDistributed",
      "type": "event"
    },
    {
      "anonymous": false,
      "inputs": [
        {
          "indexed": true,
          "internalType": "uint256",
          "name": "tokenId",
          "type": "uint256"
        },
        {
          "indexed": true,
          "internalType": "address",
          "name": "buyer",
          "type": "address"
        },
        {
          "indexed": false,
          "internalType": "uint256",
          "name": "tokensPurchased",
          "type": "uint256"
        },
        {
          "indexed": false,
          "internalType": "uint256",
          "name": "amountPaid",
          "type": "uint256"
        }
      ],
      "name": "StakePurchased",
      "type": "event"
    },
    {
      "anonymous": false,
      "inputs": [
        {
          "indexed": true,
          "internalType": "address",
          "name": "operator",
          "type": "address"
        },
        {
          "indexed": true,
          "internalType": "address",
          "name": "from",
          "type": "address"
        },
        {
          "indexed": true,
          "internalType": "address",
          "name": "to",
          "type": "address"
        },
        {
          "indexed": false,
          "internalType": "uint256[]",
          "name": "ids",
          "type": "uint256[]"
        },
        {
          "indexed": false,
          "internalType": "uint256[]",
          "name": "values",
          "type": "uint256[]"
        }
      ],
      "name": "TransferBatch",
      "type": "event"
    },
    {
      "anonymous": false,
      "inputs": [
        {
          "indexed": true,
          "internalType": "address",
          "name": "operator",
          "type": "address"
        },
        {
          "indexed": true,
          "internalType": "address",
          "name": "from",
          "type": "address"
        },
        {
          "indexed": true,
          "internalType": "address",
          "name": "to",
          "type": "address"
        },
        {
          "indexed": false,
          "internalType": "uint256",
          "name": "id",
          "type": "uint256"
        },
        {
          "indexed": false,
          "internalType": "uint256",
          "name": "value",
          "type": "uint256"
        }
      ],
      "name": "TransferSingle",
      "type": "event"
    },
    {
      "anonymous": false,
      "inputs": [
        {
          "indexed": false,
          "internalType": "string",
          "name": "value",
          "type": "string"
        },
        {
          "indexed": true,
          "internalType": "uint256",
          "name": "id",
          "type": "uint256"
        }
      ],
      "name": "URI",
      "type": "event"
    },
    {
      "stateMutability": "payable",
      "type": "fallback"
    },
    {
      "inputs": [
        {
          "internalType": "uint256",
          "name": "tokenId",
          "type": "uint256"
        }
      ],
      "name": "addFundsToNFT",
      "outputs": [],
      "stateMutability": "payable",
      "type": "function"
    },
    {
      "inputs": [
        {
          "internalType": "address",
          "name": "account",
          "type": "address"
        },
        {
          "internalType": "uint256",
          "name": "id",
          "type": "uint256"
        }
      ],
      "name": "balanceOf",
      "outputs": [
        {
          "internalType": "uint256",
          "name": "",
          "type": "uint256"
        }
      ],
      "stateMutability": "view",
      "type": "function"
    },
    {
      "inputs": [
        {
          "internalType": "address[]",
          "name": "accounts",
          "type": "address[]"
        },
        {
          "internalType": "uint256[]",
          "name": "ids",
          "type": "uint256[]"
        }
      ],
      "name": "balanceOfBatch",
      "outputs": [
        {
          "internalType": "uint256[]",
          "name": "",
          "type": "uint256[]"
        }
      ],
      "stateMutability": "view",
      "type": "function"
    },
    {
      "inputs": [
        {
          "internalType": "uint256",
          "name": "tokenId",
          "type": "uint256"
        },
        {
          "internalType": "uint256",
          "name": "amount",
          "type": "uint256"
        }
      ],
      "name": "burnNFT",
      "outputs": [],
      "stateMutability": "nonpayable",
      "type": "function"
    },
    {
      "inputs": [
        {
          "internalType": "uint256",
          "name": "tokenId",
          "type": "uint256"
        }
      ],
      "name": "buyStake",
      "outputs": [],
      "stateMutability": "payable",
      "type": "function"
    },
    {
      "inputs": [],
      "name": "contractOwner",
      "outputs": [
        {
          "internalType": "address",
          "name": "",
          "type": "address"
        }
      ],
      "stateMutability": "view",
      "type": "function"
    },
    {
      "inputs": [
        {
          "internalType": "uint256",
          "name": "",
          "type": "uint256"
        },
        {
          "internalType": "uint256",
          "name": "",
          "type": "uint256"
        }
      ],
      "name": "count",
      "outputs": [
        {
          "internalType": "address",
          "name": "",
          "type": "address"
        }
      ],
      "stateMutability": "view",
      "type": "function"
    },
    {
      "inputs": [
        {
          "internalType": "uint256",
          "name": "",
          "type": "uint256"
        }
      ],
      "name": "countoftotalsupply",
      "outputs": [
        {
          "internalType": "uint256",
          "name": "",
          "type": "uint256"
        }
      ],
      "stateMutability": "view",
      "type": "function"
    },
    {
      "inputs": [],
      "name": "currentTokenID",
      "outputs": [
        {
          "internalType": "uint256",
          "name": "",
          "type": "uint256"
        }
      ],
      "stateMutability": "view",
      "type": "function"
    },
    {
      "inputs": [
        {
          "internalType": "uint256",
          "name": "tokenId",
          "type": "uint256"
        }
      ],
      "name": "distributeRevenue",
      "outputs": [],
      "stateMutability": "payable",
      "type": "function"
    },
    {
      "inputs": [
        {
          "internalType": "uint256",
          "name": "",
          "type": "uint256"
        },
        {
          "internalType": "address",
          "name": "",
          "type": "address"
        }
      ],
      "name": "fractionalOwnership",
      "outputs": [
        {
          "internalType": "uint256",
          "name": "",
          "type": "uint256"
        }
      ],
      "stateMutability": "view",
      "type": "function"
    },
    {
      "inputs": [
        {
          "internalType": "uint256",
          "name": "",
          "type": "uint256"
        }
      ],
      "name": "fundsCollected",
      "outputs": [
        {
          "internalType": "uint256",
          "name": "",
          "type": "uint256"
        }
      ],
      "stateMutability": "view",
      "type": "function"
    },
    {
      "inputs": [
        {
          "internalType": "address",
          "name": "account",
          "type": "address"
        },
        {
          "internalType": "address",
          "name": "operator",
          "type": "address"
        }
      ],
      "name": "isApprovedForAll",
      "outputs": [
        {
          "internalType": "bool",
          "name": "",
          "type": "bool"
        }
      ],
      "stateMutability": "view",
      "type": "function"
    },
    {
      "inputs": [
        {
          "internalType": "uint256",
          "name": "_totalSupply",
          "type": "uint256"
        },
        {
          "internalType": "string",
          "name": "_uri",
          "type": "string"
        },
        {
          "internalType": "uint256",
          "name": "_totalFractionalAmount",
          "type": "uint256"
        }
      ],
      "name": "mintNFT",
      "outputs": [],
      "stateMutability": "nonpayable",
      "type": "function"
    },
    {
      "inputs": [
        {
          "internalType": "address",
          "name": "from",
          "type": "address"
        },
        {
          "internalType": "address",
          "name": "to",
          "type": "address"
        },
        {
          "internalType": "uint256[]",
          "name": "ids",
          "type": "uint256[]"
        },
        {
          "internalType": "uint256[]",
          "name": "values",
          "type": "uint256[]"
        },
        {
          "internalType": "bytes",
          "name": "data",
          "type": "bytes"
        }
      ],
      "name": "safeBatchTransferFrom",
      "outputs": [],
      "stateMutability": "nonpayable",
      "type": "function"
    },
    {
      "inputs": [
        {
          "internalType": "address",
          "name": "from",
          "type": "address"
        },
        {
          "internalType": "address",
          "name": "to",
          "type": "address"
        },
        {
          "internalType": "uint256",
          "name": "id",
          "type": "uint256"
        },
        {
          "internalType": "uint256",
          "name": "value",
          "type": "uint256"
        },
        {
          "internalType": "bytes",
          "name": "data",
          "type": "bytes"
        }
      ],
      "name": "safeTransferFrom",
      "outputs": [],
      "stateMutability": "nonpayable",
      "type": "function"
    },
    {
      "inputs": [
        {
          "internalType": "address",
          "name": "operator",
          "type": "address"
        },
        {
          "internalType": "bool",
          "name": "approved",
          "type": "bool"
        }
      ],
      "name": "setApprovalForAll",
      "outputs": [],
      "stateMutability": "nonpayable",
      "type": "function"
    },
    {
      "inputs": [
        {
          "internalType": "bytes4",
          "name": "interfaceId",
          "type": "bytes4"
        }
      ],
      "name": "supportsInterface",
      "outputs": [
        {
          "internalType": "bool",
          "name": "",
          "type": "bool"
        }
      ],
      "stateMutability": "view",
      "type": "function"
    },
    {
      "inputs": [
        {
          "internalType": "uint256",
          "name": "",
          "type": "uint256"
        }
      ],
      "name": "tokenCreator",
      "outputs": [
        {
          "internalType": "address",
          "name": "",
          "type": "address"
        }
      ],
      "stateMutability": "view",
      "type": "function"
    },
    {
      "inputs": [
        {
          "internalType": "uint256",
          "name": "",
          "type": "uint256"
        }
      ],
      "name": "tokenSupply",
      "outputs": [
        {
          "internalType": "uint256",
          "name": "",
          "type": "uint256"
        }
      ],
      "stateMutability": "view",
      "type": "function"
    },
    {
      "inputs": [
        {
          "internalType": "uint256",
          "name": "",
          "type": "uint256"
        }
      ],
      "name": "totalFractionalAmount",
      "outputs": [
        {
          "internalType": "uint256",
          "name": "",
          "type": "uint256"
        }
      ],
      "stateMutability": "view",
      "type": "function"
    },
    {
      "inputs": [
        {
          "internalType": "uint256",
          "name": "tokenId",
          "type": "uint256"
        }
      ],
      "name": "uri",
      "outputs": [
        {
          "internalType": "string",
          "name": "",
          "type": "string"
        }
      ],
      "stateMutability": "view",
      "type": "function"
    },
    {
      "inputs": [],
      "name": "withdrawFunds",
      "outputs": [],
      "stateMutability": "nonpayable",
      "type": "function"
    },
    {
      "stateMutability": "payable",
      "type": "receive"
    }
  ],
  "bytecode": "0x608060405260006003553480156200001657600080fd5b50604051620040cb380380620040cb83398181016040528101906200003c91906200023f565b806200004e816200009760201b60201c565b5033600460006101000a81548173ffffffffffffffffffffffffffffffffffffffff021916908373ffffffffffffffffffffffffffffffffffffffff16021790555050620005c2565b8060029081620000a89190620004db565b5050565b6000604051905090565b600080fd5b600080fd5b600080fd5b600080fd5b6000601f19601f8301169050919050565b7f4e487b7100000000000000000000000000000000000000000000000000000000600052604160045260246000fd5b6200011582620000ca565b810181811067ffffffffffffffff82111715620001375762000136620000db565b5b80604052505050565b60006200014c620000ac565b90506200015a82826200010a565b919050565b600067ffffffffffffffff8211156200017d576200017c620000db565b5b6200018882620000ca565b9050602081019050919050565b60005b83811015620001b557808201518184015260208101905062000198565b60008484015250505050565b6000620001d8620001d2846200015f565b62000140565b905082815260208101848484011115620001f757620001f6620000c5565b5b6200020484828562000195565b509392505050565b600082601f830112620002245762000223620000c0565b5b815162000236848260208601620001c1565b91505092915050565b600060208284031215620002585762000257620000b6565b5b600082015167ffffffffffffffff811115620002795762000278620000bb565b5b62000287848285016200020c565b91505092915050565b600081519050919050565b7f4e487b7100000000000000000000000000000000000000000000000000000000600052602260045260246000fd5b60006002820490506001821680620002e357607f821691505b602082108103620002f957620002f86200029b565b5b50919050565b60008190508160005260206000209050919050565b60006020601f8301049050919050565b600082821b905092915050565b600060088302620003637fffffffffffffffffffffffffffffffffffffffffffffffffffffffffffffffff8262000324565b6200036f868362000324565b95508019841693508086168417925050509392505050565b6000819050919050565b6000819050919050565b6000620003bc620003b6620003b08462000387565b62000391565b62000387565b9050919050565b6000819050919050565b620003d8836200039b565b620003f0620003e782620003c3565b84845462000331565b825550505050565b600090565b62000407620003f8565b62000414818484620003cd565b505050565b5b818110156200043c5762000430600082620003fd565b6001810190506200041a565b5050565b601f8211156200048b576200045581620002ff565b620004608462000314565b8101602085101562000470578190505b620004886200047f8562000314565b83018262000419565b50505b505050565b600082821c905092915050565b6000620004b06000198460080262000490565b1980831691505092915050565b6000620004cb83836200049d565b9150826002028217905092915050565b620004e68262000290565b67ffffffffffffffff811115620005025762000501620000db565b5b6200050e8254620002ca565b6200051b82828562000440565b600060209050601f8311600181146200055357600084156200053e578287015190505b6200054a8582620004bd565b865550620005ba565b601f1984166200056386620002ff565b60005b828110156200058d5784890151825560018201915060208501945060208101905062000566565b86831015620005ad5784890151620005a9601f8916826200049d565b8355505b6001600288020188555050505b505050505050565b613af980620005d26000396000f3fe6080604052600436106101435760003560e01c806359fde1e0116100b6578063ce606ee01161006f578063ce606ee014610496578063d3caf167146104c1578063d9b798f1146104ea578063e985e9c514610527578063f242432a14610564578063fbf1343c1461058d5761014a565b806359fde1e01461039057806385667c03146103ac578063a22cb465146103e9578063b23a213e14610412578063b9d2b8031461044f578063bb62115e1461046b5761014a565b806324600fc31161010857806324600fc31461025c5780632693ebf2146102735780632eb2c2d6146102b05780632f27f19a146102d957806340c1a064146103165780634e1273f4146103535761014a565b8062fdd58e1461014c57806301ffc9a7146101895780630e89341c146101c657806317c6ab40146102035780631c97f5c7146102405761014a565b3661014a57005b005b34801561015857600080fd5b50610173600480360381019061016e9190612483565b6105b6565b60405161018091906124d2565b60405180910390f35b34801561019557600080fd5b506101b060048036038101906101ab9190612545565b610610565b6040516101bd919061258d565b60405180910390f35b3480156101d257600080fd5b506101ed60048036038101906101e891906125a8565b6106f2565b6040516101fa9190612665565b60405180910390f35b34801561020f57600080fd5b5061022a60048036038101906102259190612687565b610797565b60405161023791906124d2565b60405180910390f35b61025a600480360381019061025591906125a8565b6107bc565b005b34801561026857600080fd5b50610271610920565b005b34801561027f57600080fd5b5061029a600480360381019061029591906125a8565b610a64565b6040516102a791906124d2565b60405180910390f35b3480156102bc57600080fd5b506102d760048036038101906102d291906128c4565b610a7c565b005b3480156102e557600080fd5b5061030060048036038101906102fb91906125a8565b610b24565b60405161030d91906124d2565b60405180910390f35b34801561032257600080fd5b5061033d600480360381019061033891906125a8565b610b3c565b60405161034a91906129a2565b60405180910390f35b34801561035f57600080fd5b5061037a60048036038101906103759190612a80565b610b6f565b6040516103879190612bb6565b60405180910390f35b6103aa60048036038101906103a591906125a8565b610c7e565b005b3480156103b857600080fd5b506103d360048036038101906103ce9190612bd8565b610f07565b6040516103e091906129a2565b60405180910390f35b3480156103f557600080fd5b50610410600480360381019061040b9190612c44565b610f55565b005b34801561041e57600080fd5b50610439600480360381019061043491906125a8565b610f6b565b60405161044691906124d2565b60405180910390f35b610469600480360381019061046491906125a8565b610f83565b005b34801561047757600080fd5b5061048061134c565b60405161048d91906124d2565b60405180910390f35b3480156104a257600080fd5b506104ab611352565b6040516104b891906129a2565b60405180910390f35b3480156104cd57600080fd5b506104e860048036038101906104e39190612bd8565b611378565b005b3480156104f657600080fd5b50610511600480360381019061050c91906125a8565b611476565b60405161051e91906124d2565b60405180910390f35b34801561053357600080fd5b5061054e60048036038101906105499190612c84565b61148e565b60405161055b919061258d565b60405180910390f35b34801561057057600080fd5b5061058b60048036038101906105869190612cc4565b611522565b005b34801561059957600080fd5b506105b460048036038101906105af9190612dfc565b6115ca565b005b600080600083815260200190815260200160002060008473ffffffffffffffffffffffffffffffffffffffff1673ffffffffffffffffffffffffffffffffffffffff16815260200190815260200160002054905092915050565b60007fd9b67a26000000000000000000000000000000000000000000000000000000007bffffffffffffffffffffffffffffffffffffffffffffffffffffffff1916827bffffffffffffffffffffffffffffffffffffffffffffffffffffffff191614806106db57507f0e89341c000000000000000000000000000000000000000000000000000000007bffffffffffffffffffffffffffffffffffffffffffffffffffffffff1916827bffffffffffffffffffffffffffffffffffffffffffffffffffffffff1916145b806106eb57506106ea82611718565b5b9050919050565b606060066000838152602001908152602001600020805461071290612e9a565b80601f016020809104026020016040519081016040528092919081815260200182805461073e90612e9a565b801561078b5780601f106107605761010080835404028352916020019161078b565b820191906000526020600020905b81548152906001019060200180831161076e57829003601f168201915b50505050509050919050565b6008602052816000526040600020602052806000526040600020600091509150505481565b600460009054906101000a900473ffffffffffffffffffffffffffffffffffffffff1673ffffffffffffffffffffffffffffffffffffffff163373ffffffffffffffffffffffffffffffffffffffff161461084c576040517f08c379a000000000000000000000000000000000000000000000000000000000815260040161084390612f17565b60405180910390fd5b60006009600083815260200190815260200160002054116108a2576040517f08c379a000000000000000000000000000000000000000000000000000000000815260040161089990612f83565b60405180910390fd5b600034116108e5576040517f08c379a00000000000000000000000000000000000000000000000000000000081526004016108dc90612fef565b60405180910390fd5b807ff5e4934928a1e45d88c7a5aa2661fe0a801ca5017922e15122d74f1880155e1a3460405161091591906124d2565b60405180910390a250565b600460009054906101000a900473ffffffffffffffffffffffffffffffffffffffff1673ffffffffffffffffffffffffffffffffffffffff163373ffffffffffffffffffffffffffffffffffffffff16146109b0576040517f08c379a00000000000000000000000000000000000000000000000000000000081526004016109a790612f17565b60405180910390fd5b6000479050600081116109f8576040517f08c379a00000000000000000000000000000000000000000000000000000000081526004016109ef9061305b565b60405180910390fd5b600460009054906101000a900473ffffffffffffffffffffffffffffffffffffffff1673ffffffffffffffffffffffffffffffffffffffff166108fc829081150290604051600060405180830381858888f19350505050158015610a60573d6000803e3d6000fd5b5050565b60056020528060005260406000206000915090505481565b6000610a86611782565b90508073ffffffffffffffffffffffffffffffffffffffff168673ffffffffffffffffffffffffffffffffffffffff1614158015610acb5750610ac9868261148e565b155b15610b0f5780866040517fe237d922000000000000000000000000000000000000000000000000000000008152600401610b0692919061307b565b60405180910390fd5b610b1c868686868661178a565b505050505050565b600a6020528060005260406000206000915090505481565b60076020528060005260406000206000915054906101000a900473ffffffffffffffffffffffffffffffffffffffff1681565b60608151835114610bbb57815183516040517f5b059991000000000000000000000000000000000000000000000000000000008152600401610bb29291906130a4565b60405180910390fd5b6000835167ffffffffffffffff811115610bd857610bd76126cc565b5b604051908082528060200260200182016040528015610c065781602001602082028036833780820191505090505b50905060005b8451811015610c7357610c43610c2b828761188290919063ffffffff16565b610c3e838761189690919063ffffffff16565b6105b6565b828281518110610c5657610c556130cd565b5b60200260200101818152505080610c6c9061312b565b9050610c0c565b508091505092915050565b60006009600083815260200190815260200160002054905060008111610cd9576040517f08c379a0000000000000000000000000000000000000000000000000000000008152600401610cd0906131e5565b60405180910390fd5b600047905060008111610d21576040517f08c379a0000000000000000000000000000000000000000000000000000000008152600401610d1890613251565b60405180910390fd5b6000600c600085815260200190815260200160002054905060008111610d7c576040517f08c379a0000000000000000000000000000000000000000000000000000000008152600401610d73906132bd565b60405180910390fd5b60005b600b600086815260200190815260200160002080549050811015610ec8576000600b60008781526020019081526020016000208281548110610dc457610dc36130cd565b5b9060005260206000200160009054906101000a900473ffffffffffffffffffffffffffffffffffffffff16905060006008600088815260200190815260200160002060008373ffffffffffffffffffffffffffffffffffffffff1673ffffffffffffffffffffffffffffffffffffffff1681526020019081526020016000205490506000811115610eb3576000848287610e5e91906132dd565b610e68919061334e565b90508273ffffffffffffffffffffffffffffffffffffffff166108fc829081150290604051600060405180830381858888f19350505050158015610eb0573d6000803e3d6000fd5b50505b50508080610ec09061312b565b915050610d7f565b50837ff2838e4b541f90d41a1076a560d75e948f7d1008e72118a655568626a30b451f83604051610ef991906124d2565b60405180910390a250505050565b600b6020528160005260406000208181548110610f2357600080fd5b906000526020600020016000915091509054906101000a900473ffffffffffffffffffffffffffffffffffffffff1681565b610f67610f60611782565b83836118aa565b5050565b60096020528060005260406000206000915090505481565b60006005600083815260200190815260200160002054905060008111610fde576040517f08c379a0000000000000000000000000000000000000000000000000000000008152600401610fd5906133f1565b60405180910390fd5b6001811015611022576040517f08c379a000000000000000000000000000000000000000000000000000000000815260040161101990613483565b60405180910390fd5b600060056000848152602001908152602001600020546009600085815260200190815260200160002054611056919061334e565b90506000819050803410156110a0576040517f08c379a0000000000000000000000000000000000000000000000000000000008152600401611097906134ef565b60405180910390fd5b60006008600086815260200190815260200160002060003373ffffffffffffffffffffffffffffffffffffffff1673ffffffffffffffffffffffffffffffffffffffff168152602001908152602001600020540361116d57600b6000858152602001908152602001600020339080600181540180825580915050600190039060005260206000200160009091909190916101000a81548173ffffffffffffffffffffffffffffffffffffffff021916908373ffffffffffffffffffffffffffffffffffffffff1602179055505b6008600085815260200190815260200160002060003373ffffffffffffffffffffffffffffffffffffffff1673ffffffffffffffffffffffffffffffffffffffff16815260200190815260200160002060008154809291906111ce9061312b565b919050555034600a600086815260200190815260200160002060008282546111f6919061350f565b9250508190555060056000858152602001908152602001600020600081548092919061122190613543565b91905055503373ffffffffffffffffffffffffffffffffffffffff16847f24b22275ff9f36a2d0d5a5564c044f4618382392dab42d26cdfa0ff9cd9850d86001846040516112709291906135b1565b60405180910390a360006005600086815260200190815260200160002054036113465760006007600086815260200190815260200160002060009054906101000a900473ffffffffffffffffffffffffffffffffffffffff1690506000600a60008781526020019081526020016000205490506000600a6000888152602001908152602001600020819055508173ffffffffffffffffffffffffffffffffffffffff166108fc829081150290604051600060405180830381858888f19350505050158015611342573d6000803e3d6000fd5b5050505b50505050565b60035481565b600460009054906101000a900473ffffffffffffffffffffffffffffffffffffffff1681565b806008600084815260200190815260200160002060003373ffffffffffffffffffffffffffffffffffffffff1673ffffffffffffffffffffffffffffffffffffffff16815260200190815260200160002054101561140b576040517f08c379a000000000000000000000000000000000000000000000000000000000815260040161140290613626565b60405180910390fd5b806008600084815260200190815260200160002060003373ffffffffffffffffffffffffffffffffffffffff1673ffffffffffffffffffffffffffffffffffffffff168152602001908152602001600020600082825461146b9190613646565b925050819055505050565b600c6020528060005260406000206000915090505481565b6000600160008473ffffffffffffffffffffffffffffffffffffffff1673ffffffffffffffffffffffffffffffffffffffff16815260200190815260200160002060008373ffffffffffffffffffffffffffffffffffffffff1673ffffffffffffffffffffffffffffffffffffffff16815260200190815260200160002060009054906101000a900460ff16905092915050565b600061152c611782565b90508073ffffffffffffffffffffffffffffffffffffffff168673ffffffffffffffffffffffffffffffffffffffff1614158015611571575061156f868261148e565b155b156115b55780866040517fe237d9220000000000000000000000000000000000000000000000000000000081526004016115ac92919061307b565b60405180910390fd5b6115c28686868686611a1a565b505050505050565b600060035490506115ec33828660405180602001604052806000815250611b25565b6115f68184611bbe565b83600560008381526020019081526020016000208190555083600c600083815260200190815260200160002081905550336007600083815260200190815260200160002060006101000a81548173ffffffffffffffffffffffffffffffffffffffff021916908373ffffffffffffffffffffffffffffffffffffffff1602179055508160096000838152602001908152602001600020819055506000600a600083815260200190815260200160002081905550600360008154809291906116bc9061312b565b91905055503373ffffffffffffffffffffffffffffffffffffffff16817f0713ae16a171f65c6877fd4bff12d9157605b607ef798a53c771cbadd0892ff4868560405161170a9291906130a4565b60405180910390a350505050565b60007f01ffc9a7000000000000000000000000000000000000000000000000000000007bffffffffffffffffffffffffffffffffffffffffffffffffffffffff1916827bffffffffffffffffffffffffffffffffffffffffffffffffffffffff1916149050919050565b600033905090565b600073ffffffffffffffffffffffffffffffffffffffff168473ffffffffffffffffffffffffffffffffffffffff16036117fc5760006040517f57f447ce0000000000000000000000000000000000000000000000000000000081526004016117f391906129a2565b60405180910390fd5b600073ffffffffffffffffffffffffffffffffffffffff168573ffffffffffffffffffffffffffffffffffffffff160361186e5760006040517f01a8351400000000000000000000000000000000000000000000000000000000815260040161186591906129a2565b60405180910390fd5b61187b8585858585611be3565b5050505050565b600060208202602084010151905092915050565b600060208202602084010151905092915050565b600073ffffffffffffffffffffffffffffffffffffffff168273ffffffffffffffffffffffffffffffffffffffff160361191c5760006040517fced3e10000000000000000000000000000000000000000000000000000000000815260040161191391906129a2565b60405180910390fd5b80600160008573ffffffffffffffffffffffffffffffffffffffff1673ffffffffffffffffffffffffffffffffffffffff16815260200190815260200160002060008473ffffffffffffffffffffffffffffffffffffffff1673ffffffffffffffffffffffffffffffffffffffff16815260200190815260200160002060006101000a81548160ff0219169083151502179055508173ffffffffffffffffffffffffffffffffffffffff168373ffffffffffffffffffffffffffffffffffffffff167f17307eab39ab6107e8899845ad3d59bd9653f200f220920489ca2b5937696c3183604051611a0d919061258d565b60405180910390a3505050565b600073ffffffffffffffffffffffffffffffffffffffff168473ffffffffffffffffffffffffffffffffffffffff1603611a8c5760006040517f57f447ce000000000000000000000000000000000000000000000000000000008152600401611a8391906129a2565b60405180910390fd5b600073ffffffffffffffffffffffffffffffffffffffff168573ffffffffffffffffffffffffffffffffffffffff1603611afe5760006040517f01a83514000000000000000000000000000000000000000000000000000000008152600401611af591906129a2565b60405180910390fd5b600080611b0b8585611c95565b91509150611b1c8787848487611be3565b50505050505050565b600073ffffffffffffffffffffffffffffffffffffffff168473ffffffffffffffffffffffffffffffffffffffff1603611b975760006040517f57f447ce000000000000000000000000000000000000000000000000000000008152600401611b8e91906129a2565b60405180910390fd5b600080611ba48585611c95565b91509150611bb6600087848487611be3565b505050505050565b80600660008481526020019081526020016000209081611bde919061381c565b505050565b611bef85858585611cc5565b600073ffffffffffffffffffffffffffffffffffffffff168473ffffffffffffffffffffffffffffffffffffffff1614611c8e576000611c2d611782565b90506001845103611c7d576000611c4e60008661189690919063ffffffff16565b90506000611c6660008661189690919063ffffffff16565b9050611c76838989858589612073565b5050611c8c565b611c8b818787878787612227565b5b505b5050505050565b60608060405191506001825283602083015260408201905060018152826020820152604081016040529250929050565b8051825114611d0f57815181516040517f5b059991000000000000000000000000000000000000000000000000000000008152600401611d069291906130a4565b60405180910390fd5b6000611d19611782565b905060005b8351811015611f2e576000611d3c828661189690919063ffffffff16565b90506000611d53838661189690919063ffffffff16565b9050600073ffffffffffffffffffffffffffffffffffffffff168873ffffffffffffffffffffffffffffffffffffffff1614611e8057600080600084815260200190815260200160002060008a73ffffffffffffffffffffffffffffffffffffffff1673ffffffffffffffffffffffffffffffffffffffff16815260200190815260200160002054905081811015611e2857888183856040517f03dee4c5000000000000000000000000000000000000000000000000000000008152600401611e1f94939291906138ee565b60405180910390fd5b81810360008085815260200190815260200160002060008b73ffffffffffffffffffffffffffffffffffffffff1673ffffffffffffffffffffffffffffffffffffffff16815260200190815260200160002081905550505b600073ffffffffffffffffffffffffffffffffffffffff168773ffffffffffffffffffffffffffffffffffffffff1614611f1b578060008084815260200190815260200160002060008973ffffffffffffffffffffffffffffffffffffffff1673ffffffffffffffffffffffffffffffffffffffff1681526020019081526020016000206000828254611f13919061350f565b925050819055505b505080611f279061312b565b9050611d1e565b506001835103611fed576000611f4e60008561189690919063ffffffff16565b90506000611f6660008561189690919063ffffffff16565b90508573ffffffffffffffffffffffffffffffffffffffff168773ffffffffffffffffffffffffffffffffffffffff168473ffffffffffffffffffffffffffffffffffffffff167fc3d58168c5ae7397731d063d5bbf3d657854427343f4c083240f7aacaa2d0f628585604051611fde9291906130a4565b60405180910390a4505061206c565b8373ffffffffffffffffffffffffffffffffffffffff168573ffffffffffffffffffffffffffffffffffffffff168273ffffffffffffffffffffffffffffffffffffffff167f4a39dc06d4c0dbc64b70af90fd698a233a518aa5d07e595d983b8c0526c8f7fb8686604051612063929190613933565b60405180910390a45b5050505050565b60008473ffffffffffffffffffffffffffffffffffffffff163b111561221f578373ffffffffffffffffffffffffffffffffffffffff1663f23a6e6187878686866040518663ffffffff1660e01b81526004016120d49594939291906139bf565b6020604051808303816000875af192505050801561211057506040513d601f19601f8201168201806040525081019061210d9190613a2e565b60015b612194573d8060008114612140576040519150601f19603f3d011682016040523d82523d6000602084013e612145565b606091505b50600081510361218c57846040517f57f447ce00000000000000000000000000000000000000000000000000000000815260040161218391906129a2565b60405180910390fd5b805181602001fd5b63f23a6e6160e01b7bffffffffffffffffffffffffffffffffffffffffffffffffffffffff1916817bffffffffffffffffffffffffffffffffffffffffffffffffffffffff19161461221d57846040517f57f447ce00000000000000000000000000000000000000000000000000000000815260040161221491906129a2565b60405180910390fd5b505b505050505050565b60008473ffffffffffffffffffffffffffffffffffffffff163b11156123d3578373ffffffffffffffffffffffffffffffffffffffff1663bc197c8187878686866040518663ffffffff1660e01b8152600401612288959493929190613a5b565b6020604051808303816000875af19250505080156122c457506040513d601f19601f820116820180604052508101906122c19190613a2e565b60015b612348573d80600081146122f4576040519150601f19603f3d011682016040523d82523d6000602084013e6122f9565b606091505b50600081510361234057846040517f57f447ce00000000000000000000000000000000000000000000000000000000815260040161233791906129a2565b60405180910390fd5b805181602001fd5b63bc197c8160e01b7bffffffffffffffffffffffffffffffffffffffffffffffffffffffff1916817bffffffffffffffffffffffffffffffffffffffffffffffffffffffff1916146123d157846040517f57f447ce0000000000000000000000000000000000000000000000000000000081526004016123c891906129a2565b60405180910390fd5b505b505050505050565b6000604051905090565b600080fd5b600080fd5b600073ffffffffffffffffffffffffffffffffffffffff82169050919050565b600061241a826123ef565b9050919050565b61242a8161240f565b811461243557600080fd5b50565b60008135905061244781612421565b92915050565b6000819050919050565b6124608161244d565b811461246b57600080fd5b50565b60008135905061247d81612457565b92915050565b6000806040838503121561249a576124996123e5565b5b60006124a885828601612438565b92505060206124b98582860161246e565b9150509250929050565b6124cc8161244d565b82525050565b60006020820190506124e760008301846124c3565b92915050565b60007fffffffff0000000000000000000000000000000000000000000000000000000082169050919050565b612522816124ed565b811461252d57600080fd5b50565b60008135905061253f81612519565b92915050565b60006020828403121561255b5761255a6123e5565b5b600061256984828501612530565b91505092915050565b60008115159050919050565b61258781612572565b82525050565b60006020820190506125a2600083018461257e565b92915050565b6000602082840312156125be576125bd6123e5565b5b60006125cc8482850161246e565b91505092915050565b600081519050919050565b600082825260208201905092915050565b60005b8381101561260f5780820151818401526020810190506125f4565b60008484015250505050565b6000601f19601f8301169050919050565b6000612637826125d5565b61264181856125e0565b93506126518185602086016125f1565b61265a8161261b565b840191505092915050565b6000602082019050818103600083015261267f818461262c565b905092915050565b6000806040838503121561269e5761269d6123e5565b5b60006126ac8582860161246e565b92505060206126bd85828601612438565b9150509250929050565b600080fd5b7f4e487b7100000000000000000000000000000000000000000000000000000000600052604160045260246000fd5b6127048261261b565b810181811067ffffffffffffffff82111715612723576127226126cc565b5b80604052505050565b60006127366123db565b905061274282826126fb565b919050565b600067ffffffffffffffff821115612762576127616126cc565b5b602082029050602081019050919050565b600080fd5b600061278b61278684612747565b61272c565b905080838252602082019050602084028301858111156127ae576127ad612773565b5b835b818110156127d757806127c3888261246e565b8452602084019350506020810190506127b0565b5050509392505050565b600082601f8301126127f6576127f56126c7565b5b8135612806848260208601612778565b91505092915050565b600080fd5b600067ffffffffffffffff82111561282f5761282e6126cc565b5b6128388261261b565b9050602081019050919050565b82818337600083830152505050565b600061286761286284612814565b61272c565b9050828152602081018484840111156128835761288261280f565b5b61288e848285612845565b509392505050565b600082601f8301126128ab576128aa6126c7565b5b81356128bb848260208601612854565b91505092915050565b600080600080600060a086880312156128e0576128df6123e5565b5b60006128ee88828901612438565b95505060206128ff88828901612438565b945050604086013567ffffffffffffffff8111156129205761291f6123ea565b5b61292c888289016127e1565b935050606086013567ffffffffffffffff81111561294d5761294c6123ea565b5b612959888289016127e1565b925050608086013567ffffffffffffffff81111561297a576129796123ea565b5b61298688828901612896565b9150509295509295909350565b61299c8161240f565b82525050565b60006020820190506129b76000830184612993565b92915050565b600067ffffffffffffffff8211156129d8576129d76126cc565b5b602082029050602081019050919050565b60006129fc6129f7846129bd565b61272c565b90508083825260208201905060208402830185811115612a1f57612a1e612773565b5b835b81811015612a485780612a348882612438565b845260208401935050602081019050612a21565b5050509392505050565b600082601f830112612a6757612a666126c7565b5b8135612a778482602086016129e9565b91505092915050565b60008060408385031215612a9757612a966123e5565b5b600083013567ffffffffffffffff811115612ab557612ab46123ea565b5b612ac185828601612a52565b925050602083013567ffffffffffffffff811115612ae257612ae16123ea565b5b612aee858286016127e1565b9150509250929050565b600081519050919050565b600082825260208201905092915050565b6000819050602082019050919050565b612b2d8161244d565b82525050565b6000612b3f8383612b24565b60208301905092915050565b6000602082019050919050565b6000612b6382612af8565b612b6d8185612b03565b9350612b7883612b14565b8060005b83811015612ba9578151612b908882612b33565b9750612b9b83612b4b565b925050600181019050612b7c565b5085935050505092915050565b60006020820190508181036000830152612bd08184612b58565b905092915050565b60008060408385031215612bef57612bee6123e5565b5b6000612bfd8582860161246e565b9250506020612c0e8582860161246e565b9150509250929050565b612c2181612572565b8114612c2c57600080fd5b50565b600081359050612c3e81612c18565b92915050565b60008060408385031215612c5b57612c5a6123e5565b5b6000612c6985828601612438565b9250506020612c7a85828601612c2f565b9150509250929050565b60008060408385031215612c9b57612c9a6123e5565b5b6000612ca985828601612438565b9250506020612cba85828601612438565b9150509250929050565b600080600080600060a08688031215612ce057612cdf6123e5565b5b6000612cee88828901612438565b9550506020612cff88828901612438565b9450506040612d108882890161246e565b9350506060612d218882890161246e565b925050608086013567ffffffffffffffff811115612d4257612d416123ea565b5b612d4e88828901612896565b9150509295509295909350565b600067ffffffffffffffff821115612d7657612d756126cc565b5b612d7f8261261b565b9050602081019050919050565b6000612d9f612d9a84612d5b565b61272c565b905082815260208101848484011115612dbb57612dba61280f565b5b612dc6848285612845565b509392505050565b600082601f830112612de357612de26126c7565b5b8135612df3848260208601612d8c565b91505092915050565b600080600060608486031215612e1557612e146123e5565b5b6000612e238682870161246e565b935050602084013567ffffffffffffffff811115612e4457612e436123ea565b5b612e5086828701612dce565b9250506040612e618682870161246e565b9150509250925092565b7f4e487b7100000000000000000000000000000000000000000000000000000000600052602260045260246000fd5b60006002820490506001821680612eb257607f821691505b602082108103612ec557612ec4612e6b565b5b50919050565b7f4e6f7420746865206f776e657200000000000000000000000000000000000000600082015250565b6000612f01600d836125e0565b9150612f0c82612ecb565b602082019050919050565b60006020820190508181036000830152612f3081612ef4565b9050919050565b7f4e465420646f6573206e6f742065786973740000000000000000000000000000600082015250565b6000612f6d6012836125e0565b9150612f7882612f37565b602082019050919050565b60006020820190508181036000830152612f9c81612f60565b9050919050565b7f4e6f2066756e64732070726f7669646564000000000000000000000000000000600082015250565b6000612fd96011836125e0565b9150612fe482612fa3565b602082019050919050565b6000602082019050818103600083015261300881612fcc565b9050919050565b7f4e6f2066756e647320746f207769746864726177000000000000000000000000600082015250565b60006130456014836125e0565b91506130508261300f565b602082019050919050565b6000602082019050818103600083015261307481613038565b9050919050565b60006040820190506130906000830185612993565b61309d6020830184612993565b9392505050565b60006040820190506130b960008301856124c3565b6130c660208301846124c3565b9392505050565b7f4e487b7100000000000000000000000000000000000000000000000000000000600052603260045260246000fd5b7f4e487b7100000000000000000000000000000000000000000000000000000000600052601160045260246000fd5b60006131368261244d565b91507fffffffffffffffffffffffffffffffffffffffffffffffffffffffffffffffff8203613168576131676130fc565b5b600182019050919050565b7f546f6b656e20737570706c79206d75737420626520677265617465722074686160008201527f6e207a65726f0000000000000000000000000000000000000000000000000000602082015250565b60006131cf6026836125e0565b91506131da82613173565b604082019050919050565b600060208201905081810360008301526131fe816131c2565b9050919050565b7f4e6f20726576656e756520746f20646973747269627574650000000000000000600082015250565b600061323b6018836125e0565b915061324682613205565b602082019050919050565b6000602082019050818103600083015261326a8161322e565b9050919050565b7f4e6f206672616374696f6e7320736f6c64000000000000000000000000000000600082015250565b60006132a76011836125e0565b91506132b282613271565b602082019050919050565b600060208201905081810360008301526132d68161329a565b9050919050565b60006132e88261244d565b91506132f38361244d565b92508282026133018161244d565b91508282048414831517613318576133176130fc565b5b5092915050565b7f4e487b7100000000000000000000000000000000000000000000000000000000600052601260045260246000fd5b60006133598261244d565b91506133648361244d565b9250826133745761337361331f565b5b828204905092915050565b7f4e6f206672616374696f6e616c206f776e65727368697020617661696c61626c60008201527f6500000000000000000000000000000000000000000000000000000000000000602082015250565b60006133db6021836125e0565b91506133e68261337f565b604082019050919050565b6000602082019050818103600083015261340a816133ce565b9050919050565b7f4e6f7420656e6f756768206672616374696f6e616c206f776e6572736869702060008201527f617661696c61626c650000000000000000000000000000000000000000000000602082015250565b600061346d6029836125e0565b915061347882613411565b604082019050919050565b6000602082019050818103600083015261349c81613460565b9050919050565b7f496e636f727265637420616d6f756e74206f66204554482073656e7400000000600082015250565b60006134d9601c836125e0565b91506134e4826134a3565b602082019050919050565b60006020820190508181036000830152613508816134cc565b9050919050565b600061351a8261244d565b91506135258361244d565b925082820190508082111561353d5761353c6130fc565b5b92915050565b600061354e8261244d565b915060008203613561576135606130fc565b5b600182039050919050565b6000819050919050565b6000819050919050565b600061359b6135966135918461356c565b613576565b61244d565b9050919050565b6135ab81613580565b82525050565b60006040820190506135c660008301856135a2565b6135d360208301846124c3565b9392505050565b7f496e73756666696369656e742062616c616e636520746f206275726e00000000600082015250565b6000613610601c836125e0565b915061361b826135da565b602082019050919050565b6000602082019050818103600083015261363f81613603565b9050919050565b60006136518261244d565b915061365c8361244d565b9250828203905081811115613674576136736130fc565b5b92915050565b60008190508160005260206000209050919050565b60006020601f8301049050919050565b600082821b905092915050565b6000600883026136dc7fffffffffffffffffffffffffffffffffffffffffffffffffffffffffffffffff8261369f565b6136e6868361369f565b95508019841693508086168417925050509392505050565b600061371961371461370f8461244d565b613576565b61244d565b9050919050565b6000819050919050565b613733836136fe565b61374761373f82613720565b8484546136ac565b825550505050565b600090565b61375c61374f565b61376781848461372a565b505050565b5b8181101561378b57613780600082613754565b60018101905061376d565b5050565b601f8211156137d0576137a18161367a565b6137aa8461368f565b810160208510156137b9578190505b6137cd6137c58561368f565b83018261376c565b50505b505050565b600082821c905092915050565b60006137f3600019846008026137d5565b1980831691505092915050565b600061380c83836137e2565b9150826002028217905092915050565b613825826125d5565b67ffffffffffffffff81111561383e5761383d6126cc565b5b6138488254612e9a565b61385382828561378f565b600060209050601f8311600181146138865760008415613874578287015190505b61387e8582613800565b8655506138e6565b601f1984166138948661367a565b60005b828110156138bc57848901518255600182019150602085019450602081019050613897565b868310156138d957848901516138d5601f8916826137e2565b8355505b6001600288020188555050505b505050505050565b60006080820190506139036000830187612993565b61391060208301866124c3565b61391d60408301856124c3565b61392a60608301846124c3565b95945050505050565b6000604082019050818103600083015261394d8185612b58565b905081810360208301526139618184612b58565b90509392505050565b600081519050919050565b600082825260208201905092915050565b60006139918261396a565b61399b8185613975565b93506139ab8185602086016125f1565b6139b48161261b565b840191505092915050565b600060a0820190506139d46000830188612993565b6139e16020830187612993565b6139ee60408301866124c3565b6139fb60608301856124c3565b8181036080830152613a0d8184613986565b90509695505050505050565b600081519050613a2881612519565b92915050565b600060208284031215613a4457613a436123e5565b5b6000613a5284828501613a19565b91505092915050565b600060a082019050613a706000830188612993565b613a7d6020830187612993565b8181036040830152613a8f8186612b58565b90508181036060830152613aa38185612b58565b90508181036080830152613ab78184613986565b9050969550505050505056fea2646970667358221220701b71c0c96455fdf51297a92c6bdb7c31f94a167498850c21a1bf1b34b883ba64736f6c63430008140033",
  "linkReferences": {},
  "deployedLinkReferences": {}
}