{
  "_format": "hh-sol-artifact-1",
  "contractName": "SimpleLottery",
  "sourceName": "src/backend/contracts/Lottery.sol",
  "abi": [
    {
      "inputs": [
        {
          "internalType": "uint256",
          "name": "_initialEntryFee",
          "type": "uint256"
        }
      ],
      "stateMutability": "nonpayable",
      "type": "constructor"
    },
    {
      "anonymous": false,
      "inputs": [
        {
          "indexed": false,
          "internalType": "uint256",
          "name": "newEntryFee",
          "type": "uint256"
        }
      ],
      "name": "EntryFeeChanged",
      "type": "event"
    },
    {
      "anonymous": false,
      "inputs": [
        {
          "indexed": true,
          "internalType": "address",
          "name": "winner",
          "type": "address"
        },
        {
          "indexed": false,
          "internalType": "uint256",
          "name": "winnerAmount",
          "type": "uint256"
        },
        {
          "indexed": true,
          "internalType": "address",
          "name": "manager",
          "type": "address"
        },
        {
          "indexed": false,
          "internalType": "uint256",
          "name": "managerAmount",
          "type": "uint256"
        }
      ],
      "name": "WinnerPaid",
      "type": "event"
    },
    {
      "inputs": [],
      "name": "enter",
      "outputs": [],
      "stateMutability": "payable",
      "type": "function"
    },
    {
      "inputs": [],
      "name": "entryFee",
      "outputs": [
        {
          "internalType": "uint256",
          "name": "",
          "type": "uint256"
        }
      ],
      "stateMutability": "view",
      "type": "function"
    },
    {
      "inputs": [],
      "name": "getPlayers",
      "outputs": [
        {
          "internalType": "address[]",
          "name": "",
          "type": "address[]"
        }
      ],
      "stateMutability": "view",
      "type": "function"
    },
    {
      "inputs": [],
      "name": "getPreviousWinners",
      "outputs": [
        {
          "internalType": "address[]",
          "name": "",
          "type": "address[]"
        }
      ],
      "stateMutability": "view",
      "type": "function"
    },
    {
      "inputs": [],
      "name": "manager",
      "outputs": [
        {
          "internalType": "address",
          "name": "",
          "type": "address"
        }
      ],
      "stateMutability": "view",
      "type": "function"
    },
    {
      "inputs": [],
      "name": "pickWinner",
      "outputs": [],
      "stateMutability": "nonpayable",
      "type": "function"
    },
    {
      "inputs": [
        {
          "internalType": "uint256",
          "name": "",
          "type": "uint256"
        }
      ],
      "name": "players",
      "outputs": [
        {
          "internalType": "address",
          "name": "",
          "type": "address"
        }
      ],
      "stateMutability": "view",
      "type": "function"
    },
    {
      "inputs": [
        {
          "internalType": "uint256",
          "name": "",
          "type": "uint256"
        }
      ],
      "name": "previousWinners",
      "outputs": [
        {
          "internalType": "address",
          "name": "",
          "type": "address"
        }
      ],
      "stateMutability": "view",
      "type": "function"
    },
    {
      "inputs": [
        {
          "internalType": "uint256",
          "name": "_newEntryFee",
          "type": "uint256"
        }
      ],
      "name": "setEntryFee",
      "outputs": [],
      "stateMutability": "nonpayable",
      "type": "function"
    }
  ],
  "bytecode": "0x60806040523480156200001157600080fd5b506040516200127b3803806200127b8339818101604052810190620000379190620000c5565b336000806101000a81548173ffffffffffffffffffffffffffffffffffffffff021916908373ffffffffffffffffffffffffffffffffffffffff1602179055508060038190555050620000f7565b600080fd5b6000819050919050565b6200009f816200008a565b8114620000ab57600080fd5b50565b600081519050620000bf8162000094565b92915050565b600060208284031215620000de57620000dd62000085565b5b6000620000ee84828501620000ae565b91505092915050565b61117480620001076000396000f3fe6080604052600436106100865760003560e01c80635d495aea116100595780635d495aea146101495780638b5b9ccc14610160578063e97dcb621461018b578063eb770d0c14610195578063f71d96cb146101be57610086565b8063072ea61c1461008b5780634586a625146100b6578063481c6a75146100f35780634e5995511461011e575b600080fd5b34801561009757600080fd5b506100a06101fb565b6040516100ad9190610a21565b60405180910390f35b3480156100c257600080fd5b506100dd60048036038101906100d89190610a6d565b610201565b6040516100ea9190610adb565b60405180910390f35b3480156100ff57600080fd5b50610108610240565b6040516101159190610adb565b60405180910390f35b34801561012a57600080fd5b50610133610264565b6040516101409190610bb4565b60405180910390f35b34801561015557600080fd5b5061015e6102f2565b005b34801561016c57600080fd5b50610175610658565b6040516101829190610bb4565b60405180910390f35b6101936106e6565b005b3480156101a157600080fd5b506101bc60048036038101906101b79190610a6d565b61081d565b005b3480156101ca57600080fd5b506101e560048036038101906101e09190610a6d565b6108ec565b6040516101f29190610adb565b60405180910390f35b60035481565b6002818154811061021157600080fd5b906000526020600020016000915054906101000a900473ffffffffffffffffffffffffffffffffffffffff1681565b60008054906101000a900473ffffffffffffffffffffffffffffffffffffffff1681565b606060028054806020026020016040519081016040528092919081815260200182805480156102e857602002820191906000526020600020905b8160009054906101000a900473ffffffffffffffffffffffffffffffffffffffff1673ffffffffffffffffffffffffffffffffffffffff168152602001906001019080831161029e575b5050505050905090565b60008054906101000a900473ffffffffffffffffffffffffffffffffffffffff1673ffffffffffffffffffffffffffffffffffffffff163373ffffffffffffffffffffffffffffffffffffffff1614610380576040517f08c379a000000000000000000000000000000000000000000000000000000000815260040161037790610c59565b60405180910390fd5b6000600180549050116103c8576040517f08c379a00000000000000000000000000000000000000000000000000000000081526004016103bf90610cc5565b60405180910390fd5b60006001805490506103d861092b565b6103e29190610d14565b90506000600182815481106103fa576103f9610d45565b5b9060005260206000200160009054906101000a900473ffffffffffffffffffffffffffffffffffffffff16905060004790506000606460148361043d9190610da3565b6104479190610de5565b9050600081836104579190610e16565b905060008054906101000a900473ffffffffffffffffffffffffffffffffffffffff1673ffffffffffffffffffffffffffffffffffffffff166108fc839081150290604051600060405180830381858888f193505050501580156104bf573d6000803e3d6000fd5b508373ffffffffffffffffffffffffffffffffffffffff166108fc829081150290604051600060405180830381858888f19350505050158015610506573d6000803e3d6000fd5b5060008054906101000a900473ffffffffffffffffffffffffffffffffffffffff1673ffffffffffffffffffffffffffffffffffffffff168473ffffffffffffffffffffffffffffffffffffffff167f2de9420d10db02ce7d7c85a0849f6d694293adf118e29f57c8737e739bab16548385604051610586929190610e4a565b60405180910390a36002849080600181540180825580915050600190039060005260206000200160009091909190916101000a81548173ffffffffffffffffffffffffffffffffffffffff021916908373ffffffffffffffffffffffffffffffffffffffff160217905550600067ffffffffffffffff81111561060c5761060b610e73565b5b60405190808252806020026020018201604052801561063a5781602001602082028036833780820191505090505b5060019080519060200190610650929190610961565b505050505050565b606060018054806020026020016040519081016040528092919081815260200182805480156106dc57602002820191906000526020600020905b8160009054906101000a900473ffffffffffffffffffffffffffffffffffffffff1673ffffffffffffffffffffffffffffffffffffffff1681526020019060010190808311610692575b5050505050905090565b600354341461072a576040517f08c379a000000000000000000000000000000000000000000000000000000000815260040161072190610f14565b60405180910390fd5b60008054906101000a900473ffffffffffffffffffffffffffffffffffffffff1673ffffffffffffffffffffffffffffffffffffffff163373ffffffffffffffffffffffffffffffffffffffff16036107b8576040517f08c379a00000000000000000000000000000000000000000000000000000000081526004016107af90610fa6565b60405180910390fd5b6001339080600181540180825580915050600190039060005260206000200160009091909190916101000a81548173ffffffffffffffffffffffffffffffffffffffff021916908373ffffffffffffffffffffffffffffffffffffffff160217905550565b60008054906101000a900473ffffffffffffffffffffffffffffffffffffffff1673ffffffffffffffffffffffffffffffffffffffff163373ffffffffffffffffffffffffffffffffffffffff16146108ab576040517f08c379a00000000000000000000000000000000000000000000000000000000081526004016108a290610c59565b60405180910390fd5b806003819055507f7b02f92154b3960f74436ed7630baccfc7598386e74db6d4a5ed62baf1755924816040516108e19190610a21565b60405180910390a150565b600181815481106108fc57600080fd5b906000526020600020016000915054906101000a900473ffffffffffffffffffffffffffffffffffffffff1681565b60004442600160405160200161094393929190611105565b6040516020818303038152906040528051906020012060001c905090565b8280548282559060005260206000209081019282156109da579160200282015b828111156109d95782518260006101000a81548173ffffffffffffffffffffffffffffffffffffffff021916908373ffffffffffffffffffffffffffffffffffffffff16021790555091602001919060010190610981565b5b5090506109e791906109eb565b5090565b5b80821115610a045760008160009055506001016109ec565b5090565b6000819050919050565b610a1b81610a08565b82525050565b6000602082019050610a366000830184610a12565b92915050565b600080fd5b610a4a81610a08565b8114610a5557600080fd5b50565b600081359050610a6781610a41565b92915050565b600060208284031215610a8357610a82610a3c565b5b6000610a9184828501610a58565b91505092915050565b600073ffffffffffffffffffffffffffffffffffffffff82169050919050565b6000610ac582610a9a565b9050919050565b610ad581610aba565b82525050565b6000602082019050610af06000830184610acc565b92915050565b600081519050919050565b600082825260208201905092915050565b6000819050602082019050919050565b610b2b81610aba565b82525050565b6000610b3d8383610b22565b60208301905092915050565b6000602082019050919050565b6000610b6182610af6565b610b6b8185610b01565b9350610b7683610b12565b8060005b83811015610ba7578151610b8e8882610b31565b9750610b9983610b49565b925050600181019050610b7a565b5085935050505092915050565b60006020820190508181036000830152610bce8184610b56565b905092915050565b600082825260208201905092915050565b7f4f6e6c7920746865206d616e616765722063616e2063616c6c2074686973206660008201527f756e6374696f6e00000000000000000000000000000000000000000000000000602082015250565b6000610c43602783610bd6565b9150610c4e82610be7565b604082019050919050565b60006020820190508181036000830152610c7281610c36565b9050919050565b7f4e6f20706c617965727320696e20746865206c6f747465727900000000000000600082015250565b6000610caf601983610bd6565b9150610cba82610c79565b602082019050919050565b60006020820190508181036000830152610cde81610ca2565b9050919050565b7f4e487b7100000000000000000000000000000000000000000000000000000000600052601260045260246000fd5b6000610d1f82610a08565b9150610d2a83610a08565b925082610d3a57610d39610ce5565b5b828206905092915050565b7f4e487b7100000000000000000000000000000000000000000000000000000000600052603260045260246000fd5b7f4e487b7100000000000000000000000000000000000000000000000000000000600052601160045260246000fd5b6000610dae82610a08565b9150610db983610a08565b9250828202610dc781610a08565b91508282048414831517610dde57610ddd610d74565b5b5092915050565b6000610df082610a08565b9150610dfb83610a08565b925082610e0b57610e0a610ce5565b5b828204905092915050565b6000610e2182610a08565b9150610e2c83610a08565b9250828203905081811115610e4457610e43610d74565b5b92915050565b6000604082019050610e5f6000830185610a12565b610e6c6020830184610a12565b9392505050565b7f4e487b7100000000000000000000000000000000000000000000000000000000600052604160045260246000fd5b7f496e636f72726563742045544820616d6f756e742073656e7420666f7220656e60008201527f7472790000000000000000000000000000000000000000000000000000000000602082015250565b6000610efe602383610bd6565b9150610f0982610ea2565b604082019050919050565b60006020820190508181036000830152610f2d81610ef1565b9050919050565b7f4d616e616765722063616e6e6f7420706172746963697061746520696e20746860008201527f65206c6f74746572790000000000000000000000000000000000000000000000602082015250565b6000610f90602983610bd6565b9150610f9b82610f34565b604082019050919050565b60006020820190508181036000830152610fbf81610f83565b9050919050565b6000819050919050565b610fe1610fdc82610a08565b610fc6565b82525050565b600081549050919050565b600081905092915050565b60008190508160005260206000209050919050565b61101b81610aba565b82525050565b600061102d8383611012565b60208301905092915050565b60008160001c9050919050565b600073ffffffffffffffffffffffffffffffffffffffff82169050919050565b600061107961107483611039565b611046565b9050919050565b600061108c8254611066565b9050919050565b6000600182019050919050565b60006110ab82610fe7565b6110b58185610ff2565b93506110c083610ffd565b8060005b838110156110f8576110d582611080565b6110df8882611021565b97506110ea83611093565b9250506001810190506110c4565b5085935050505092915050565b60006111118286610fd0565b6020820191506111218285610fd0565b60208201915061113182846110a0565b915081905094935050505056fea2646970667358221220a8a9d8fc146be9b1567feafe9e15a7981b7615e714851871015b7dc7dcaf480464736f6c63430008140033",
  "linkReferences": {},
  "deployedLinkReferences": {}
}